:0400000007EF00F016
:10000800278209ED00F0DBEF02F00600FACF03F0DB
:10001800FBCF04F0E9CF05F0EACF06F0E1CF07F017
:10002800E2CF08F0D9CF09F0DACF0AF0F3CF0BF01E
:10003800F4CF0CF0F6CF0DF0F7CF0EF0F8CF0FF0AD
:10004800F5CF10F027C011F028C012F029C013F026
:100058002AC014F09EA010D0204A212A8484C80EF9
:1000680020182110D8A407D084949E90CD90000E1B
:10007800216E000E206E9E90F2A448D0222A280EEF
:100088002218D8A442D01E041F10D8A43ED01C06A3
:10009800D8A01D061DAE1BD01A501B10D8A417D00F
:1000A80018501910D8A413D0000E1D6E000E1C6E27
:1000B800010E266E0A0E256E000E246E640E236E47
:1000C800000E1F6E000E1E6E8294CD801CD01DAED9
:1000D8001AD0000E1D6E090E1C6E1A06D8A01B063B
:1000E8001BAE11D0000E1B6E090E1A6E1806D8A092
:1000F800190619AE08D0000E196E000E186E000E03
:100108001B6E090E1A6E000E226EF294F0A274D0C5
:10011800000E1F6E000E1E6E29D0000E196E000E06
:1001280023D0000E196E010E1FD0000E196E020E9C
:100138001BD0000E196E030E17D0000E196E040E98
:1001480013D0000E196E050E0FD0000E196E060E94
:100158000BD0000E196E070E07D0000E196E080E90
:1001680003D0000E196E090E186E37D023C001F0A7
:1001780024C002F00250000AD8B40AD0010AD8B448
:1001880012D0030AD8B41AD0010AD8B41FD025D087
:100198000150000AD8B4C1D7640AD8B4C2D7AC0A8F
:1001A800D8B4C3D71AD001502C0AD8B4C2D7BC0AC5
:1001B800D8B4C3D7640AD8B4C4D70FD00150580AEA
:1001C800D8B4C3D7E40AD8B4C4D707D00150200A9A
:1001D800D8B4C3D7A40AD8B4C4D7640E2326000E53
:1001E8002422850E235C030E2458D8A004D0000EC8
:1001F800246E000E236EF092F0A055D0000E1F6EF4
:10020800000E1E6E29D0000E1B6E000E23D0000EAD
:100218001B6E010E1FD0000E1B6E020E1BD0000EAF
:100228001B6E030E17D0000E1B6E040E13D0000EAB
:100238001B6E050E0FD0000E1B6E060E0BD0000EA7
:100248001B6E070E07D0000E1B6E080E03D0000EA3
:100258001B6E090E1A6E1FD02550000AD8B4D3D7CA
:100268000A0AD8B4D4D71E0AD8B4D5D70A0AD8B43B
:10027800D6D7360AD8B4D7D71A0AD8B4D8D70E0AD8
:10028800D8B4D9D77A0AD8B4DAD7160AD8B4DBD70B
:100298000A0AD8B4DCD70A0E25265A0E256402D0DD
:1002A800000E256EF090F2A254D0000E1F6E000EC4
:1002B8001E6E29D0000E1D6E000E23D0000E1D6E7E
:1002C800010E1FD0000E1D6E020E1BD0000E1D6EFB
:1002D800030E17D0000E1D6E040E13D0000E1D6EF7
:1002E800050E0FD0000E1D6E060E0BD0000E1D6EF3
:1002F800070E07D0000E1D6E080E03D0000E1D6EEF
:10030800090E1C6E1FD02650000AD8B4D3D7010A94
:10031800D8B4D4D7030AD8B4D5D7010AD8B4D6D715
:10032800070AD8B4D7D7010AD8B4D8D7030AD8B49B
:10033800D9D7010AD8B4DAD70F0AD8B4DBD7010A5B
:10034800D8B4DCD7262A090E266402D0000E266E01
:10035800F292F2A010D081A80DD01E041F10D8A4CC
:1003680004D0000E1F6E000E03D0000E1F6E010E8B
:100378001E6E8284F29014C02AF013C029F012C0B5
:1003880028F011C027F010C0F5FF0FC0F8FF0EC00D
:10039800F7FF0DC0F6FF0CC0F4FF0BC0F3FF0AC057
:1003A800DAFF09C0D9FF08C0E2FF07C0E1FF06C0B5
:1003B800EAFF05C0E9FF04C0FBFF03C0FAFF27926C
:1003C80011001ED032EC03F042D07DEC03F03FD098
:1003D80041EC03F03CD050EC03F039D09BEC03F037
:1003E80036D0AAEC03F033D05FEC03F030D06EECDB
:1003F80003F02DD0B9EC03F02AD08CEC03F027D011
:100408001AC015F01BC016F01650000AD8A41FD049
:100418001550000AD8B4D6D7010AD8B4D6D7030ADB
:10042800D8B4D6D7010AD8B4D6D7070AD8B4D6D7FD
:10043800010AD8B4D6D7030AD8B4D6D7010AD8B493
:10044800D6D70F0AD8B4D6D7010AD8B4D6D7838C52
:1004580012001ED032EC03F042D07DEC03F03FD006
:1004680041EC03F03CD050EC03F039D09BEC03F0A6
:1004780036D0AAEC03F033D05FEC03F030D06EEC4A
:1004880003F02DD0B9EC03F02AD08CEC03F027D080
:1004980018C015F019C016F01650000AD8A41FD0BD
:1004A8001550000AD8B4D6D7010AD8B4D6D7030A4B
:1004B800D8B4D6D7010AD8B4D6D7070AD8B4D6D76D
:1004C800010AD8B4D6D7030AD8B4D6D7010AD8B403
:1004D800D6D70F0AD8B4D6D7010AD8B4D6D7838EC0
:1004E80012001ED032EC03F042D07DEC03F03FD076
:1004F80041EC03F03CD050EC03F039D09BEC03F016
:1005080036D0AAEC03F033D05FEC03F030D06EECB9
:1005180003F02DD0B9EC03F02AD08CEC03F027D0EF
:100528001CC015F01DC016F01650000AD8A41FD024
:100538001550000AD8B4D6D7010AD8B4D6D7030ABA
:10054800D8B4D6D7010AD8B4D6D7070AD8B4D6D7DC
:10055800010AD8B4D6D7030AD8B4D6D7010AD8B472
:10056800D6D70F0AD8B4D6D7010AD8B4D6D7838A33
:100578001200C8EC03F075EC02F0030E176E980E2B
:10058800E82EFED7172EFCD7E5EC01F0030E176E08
:10059800980EE82EFED7172EFCD72DEC02F0030E8E
:1005A800176E980EE82EFED7172EFCD7E4D79E0EAE
:1005B800F66E070EF76E000EF86E00EE23F010EEE2
:1005C80004F00900F5CFEEFFE550E150FAE100EE46
:1005D80018F00B0EEE6AE806FDE127902792000E50
:1005E800F86E0001BDEF02F0D09EF28EF28CF28A16
:1005F800F294F194D59C3C0ED76EB00ED66ED59A77
:10060800D590D592D58E9D809E909F90CD92CD9875
:10061800CD9A3C0ECF6EB00ECE6E1200F286F180EF
:10062800F290F28EF288F19CF292F086F19AF08CB8
:10063800F090F088F198F08EF0921200D388D38A67
:10064800D38C000E956E949C949E94949694000E70
:10065800836E829C829E84948294120083908392FB
:1006680083948396829C829E8398838083828384EA
:100678008396828C828E83881200839083928394DF
:100688008396829C829E83988380838283948386C8
:10069800828C829E838812008390839283948396AF
:1006A800829C829E83988390838283848386828CB3
:1006B800829E838812008390839283948396829C7F
:1006C800829E83988380838283848386829C828EA1
:1006D800838812008390839283948396829C829E5F
:1006E80083988390839283848396828C829E838866
:1006F80012008390839283948396829C829E83982F
:100708008390839283848396828C829E839812003E
:100718008390839283948396829C829E839883900D
:10072800838283848386828C828E8388120083905E
:10073800839283948396829C829E839883908392EB
:1007480083848386828C828E83981200839083921E
:1007580083948396829C829E8398839083828384E9
:100768008386829C828E83881200839083928394EE
:100778008396829C829E83988380838283848386E7
:10078800828C828E8388120012EC03F022EC03F034
:0A079800F8EC02F0120064000A0100
:020000040020DA
:08000000FFFFFFFFFFFFFFFF00
:020000040030CA
:0E0000000008191EFF0185FF0FC00FE00F4022
:00000001FF
